:020000040800F2
:100000005843002059020008371A0008B7150008A5
:10001000351A0008BB030008E120000800000000BA
:100020000000000000000000000000009D0100082A
:10003000BD03000800000000F1010008E51A0008F7
:1000400073020008730200087302000873020008BC
:1000500073020008730200087302000873020008AC
:10006000730200087302000873020008730200089C
:10007000730200087302000873020008730200088C
:10008000730200087302000873020008730200087C
:10009000730200087302000873020008730200086C
:1000A00073020008DD1B00087302000873020008D9
:1000B000730200087302000873020008730200084C
:1000C000730200087302000873020008730200083C
:1000D000730200087302000873020008D5200008AC
:1000E000730200087302000873020008730200081C
:1000F000730200087302000873020008730200080C
:1001000073020008730200087302000873020008FB
:1001100073020008730200087302000873020008EB
:1001200073020008730200087302000873020008DB
:1001300073020008730200087302000873020008CB
:1001400073020008730200087302000873020008BB
:1001500073020008730200087302000873020008AB
:10016000730200087302000873020008730200089B
:100170007302000873020008730200080000000008
:100180007302000873020008DFF80CD000F0D8F802
:10019000004800470D210008584300202B4B1968E8
:1001A0000868B0E8F04F80F30988BFF36F8F4FF015
:1001B000000080F3118870470000000006480068C6
:1001C000006880F3088862B661B6BFF34F8FBFF353
:1001D0006F8F00DF00BF00BF08ED00E0DFF80C000C
:1001E000016841F470010160704700BF88ED00E0D4
:1001F000EFF30980BFF36F8F144B1A681EF0100FD6
:1002000008BF20ED108A20E9F04F106008B44FF0CD
:10021000500080F31188BFF34F8FBFF36F8F02F050
:10022000FFFC4FF0000080F3118808BC19680868D3
:10023000B0E8F04F1EF0100F08BFB0EC108A80F34A
:100240000988BFF36F8F704700BF00BF5C010020BB
:10025000EFF30580704700000648804706480047D6
:10026000FEE7FEE7FEE7FEE7FEE7FEE7FEE7FEE766
:10027000FEE7FEE7891B0008890100082DE9F05F11
:100280000546002092469B46884606468146402405
:100290001BE0284641464746224600F041F85346B7
:1002A0005A46C01A914110D311461846224600F012
:1002B00028F82D1A67EB01084F462246012000213D
:1002C00000F01FF817EB00094E41201EA4F10104B5
:1002D000DFDC484631462A464346BDE8F09F40EA07
:1002E00001039B0703D009E008C9121F08C0042AB4
:1002F000FAD203E011F8013B00F8013B521EF9D29B
:100300007047202A04DB203A00FA02F100207047EF
:100310009140C2F1200320FA03F319439040704743
:10032000202A04DB203A21FA02F00021704721FA4A
:1003300002F3D040C2F120029140084319467047B1
:10034000064C074D06E0E06840F0010394E8070022
:1003500098471034AC42F6D3FFF71AFF7436000802
:100360009436000870B58C1810F8015B15F007037F
:1003700001D110F8013B2A1106D110F8012B03E03E
:1003800010F8016B01F8016B5B1EF9D12B0705D446
:100390000023521E0DD401F8013BFAE710F8013B8F
:1003A000CB1A921C03E013F8015B01F8015B521EAB
:1003B000F9D5A142D8D3002070BDFEE7704790F870
:1003C0003510022903D080214165012070470521A5
:1003D00080F835100068016821F0010101600020FB
:1003E000704700002DE9F84FDFF87CB100224FF094
:1003F00001084FF0030A4FF00F090BF1040E00BF84
:100400000B6808FA02F42340A3426ED14D68022D16
:1004100001D0122D0ED1D50800EB850CDCF8205050
:100420005607F70E09FA07F6B5430E69BE402E438C
:10043000CCF82060066855000F790AFA05FC07F031
:10044000030726EA0C06AF40374307604E68012ECB
:1004500005D0022E03D0112E01D0122E0ED18668A7
:10046000CF6826EA0C06AF40374387604668A6434C
:100470000C79C4F30014944034434460C6688C681B
:1004800026EA0C06AC403443C4604C68E40065D5F1
:10049000364C256845F480452560246822F0030524
:1004A00004F480440094324C2E19D6F8084895077D
:1004B0002F0F09FA07F5AC432E4DA84201D10025B4
:1004C00024E02D4DA84201D101251FE02B4DA8426B
:1004D00001D102251AE02A4DA84201D1032515E0D9
:1004E000284DA84202D1042510E037E0264DA8424D
:1004F00001D105250AE0254DA84201D1062505E0D8
:10050000234DA84201D1072500E00825BD40254321
:10051000C6F80858DBF800405D464E689C43F60379
:1005200000D51C432C60DEF8004075464E689C43A5
:10053000B60300D51C432C600B4D08352C684E6863
:100540009C43F60200D51C432C60074D0C352C68EB
:100550004E689C43B60200D51C432C60521C102AE6
:10056000FFF44EAFBDE8F88F003C01404438024034
:100570000030014000000240000402400008024038
:10058000000C02400010024000140240001802401B
:10059000001C02400AB1816170470904FBE70000BA
:1005A00001488068704700002801002070B50400F1
:1005B00004D094F83D00002510B106E0012070BD84
:1005C00084F83C50204600F005FA242084F83D00D1
:1005D0002068016821F00101016000F0BBFB334994
:1005E0002268B0FBF1F15160314A6368934206D949
:1005F0004FF4967359434FF47A73B1FBF3F12368C8
:10060000491C1962616891420BD84900B0FBF1F2B4
:10061000C2F30B02042A01D2042019E0B0FBF1F06E
:1006200016E0A3689BB301EBC10202EB0112B0FB21
:10063000F2F242F48042120530D04BB301EBC1021A
:1006400002EB0111B0FBF1F040F4804040F40040B7
:100650002168C861D4E90701084321680860D4E92A
:100660000310084321688860D4E905010843216824
:10067000C8602068016841F0010101602564202004
:1006800084F83D00256384F83E50002070BD00E0F2
:1006900006E001EB4102B0FBF2F2CCE70120D7E724
:1006A00001EB4101B0FBF1F0D0E7000040420F0048
:1006B000A08601002DE9F84F1F4690468A46044661
:1006C000DDF82890FFF76CFF054694F83D002028E0
:1006D0006FD1192301226E492046009501F061F87F
:1006E0000028F5D194F83C00012862D0012084F85C
:1006F0003C0020680168C90703D1016841F001018D
:1007000001602068016821F400610160222084F802
:100710003D00102084F83E0000262664C4F82480A2
:1007200067855C48E062608D20852B464A465146CD
:10073000204600F055FF28B1206C84F83C60042866
:1007400041D04DE0208D544F68B1012814D00228CB
:100750002068016816D041F4806101602068416919
:100760008069009085E02068416981690091016895
:1007700041F4007101607CE02068016821F480612F
:100780000160F0E721F4806101602068016841F4B4
:100790000061E2E7032849D801280BD0022817D0CE
:1007A0004B46002239462046009500F0FAFFB8B9C2
:1007B0002AE06AE02A464946204601F067F828B157
:1007C000206C20280CD00120BDE8F88F206845E07F
:1007D0004B46002239462046009500F0E2FF08B162
:1007E0000320F1E72068016841F40071016020688E
:1007F0000169606A421C62620170208D401E208582
:10080000608D401E6085E1E72068016821F4806109
:10081000016020680169606A421C62620170208D7B
:10082000401E2085608D401E6085D1E72A464946DE
:10083000204601F02BF80028C2D120680269606AC6
:10084000411C61620270208D401E2085608D401E1B
:10085000608520684169C94349070AD40169606A13
:10086000421C62620170208D401E2085608D401EFA
:100870006085208D00288DD1202084F83D0084F8EB
:100880003E6084F83C6000209EE702209CE7000068
:10089000020010000000FFFF040001002DE9F84FE6
:1008A0001F4690468A460446DDF82890FFF778FEFA
:1008B000064694F83D0020287ED1192301224349A1
:1008C0002046009600F06DFF00287DD194F83C0092
:1008D000012879D0012084F83C0020680168C9070C
:1008E00003D1016841F0010101602068016821F431
:1008F00000610160212084F83D00102084F83E0052
:1009000000252564C4F8248067853148E062608D45
:10091000208533464A465146204600F0D1FE28B194
:10092000206C84F83C5004284CD00DE020684169CC
:100930008069009030E032464946204600F0D7FFFB
:1009400028B1206C042838D00320BDE8F88F606AF5
:10095000411C6162216800780861608D401E6085DD
:10096000208D401E80B2208521684A69D2435207FB
:100970000BD450B1606A421C626200780861608DDD
:10098000401E6085208D401E208532464946204607
:1009900000F0E0FE0028D4D1208D0028CBD154F8FF
:1009A0003D0B016841F400710160202004F81E092C
:1009B000E57765770020C8E706E02068016841F424
:1009C000007101600120C0E70220BEE702001000B4
:1009D0000000FFFF00B500680E4987B0884216D1BD
:1009E000C02000901220019001200290032003906B
:1009F0000420049069460848FFF7F4FC07480168A2
:100A000041F400110160006800F40010059007B087
:100A100000BD000000540040000402404038024085
:100A200002488168027811448160704728010020E3
:100A30000B4810B5016841F400710160016841F490
:100A400080610160016841F480710160032000F061
:100A5000B1F8002000F006F800F03EF8002010BDCC
:100A6000003C024010B5014688B00022192000F079
:100A700081F8192000F072F813480024016841F051
:100A800001010160006805A900F0010006906846B8
:100A900000F03AF900F06EF90C494000B0FBF1F1BA
:100AA0000C480B4A491E026040F2E732C0E90324B9
:100AB000C0E9011400F04EFB10B1012008B010BDD8
:100AC000044800F063FBF9E74438024040420F005D
:100AD000000001402C0200201F4808B5016841F4C5
:100AE00080410160006800F4804000901A48001FB7
:100AF000016841F080510160006800F08050009072
:100B0000032000F057F8002211466FF00B0000F0B0
:100B100031F8002211466FF00A0000F02BF8002295
:100B200011466FF0090000F025F800221146501F11
:100B300000F020F800221146101F00F01BF80022E0
:100B40000F21901E00F016F800220F21BDE808408A
:100B5000501E00F00FB800004438024000F01F02A1
:100B6000012191404009800000F1E020C0F800110F
:100B700070470000F0B40E4B1B680C46C3F3022311
:100B8000C3F10705042D00D90425191D072901D239
:100B9000002300E0DB1E012606FA05F1491E214074
:100BA00099409E40761E16403143F0BC00F044BF91
:100BB0000CED00E0064900F0070208684FF6FF035D
:100BC000184040EA0220034A1043086070470000C2
:100BD0000CED00E00000FA052DE9F0470E46050097
:100BE00065D0DFF81481D8F80000F7B200F00F00EC
:100BF000B04207D288F80070D8F8000000F00F006B
:100C0000B04254D128683D4C810712D5400703D526
:100C1000206840F4E05020602878000703D5206861
:100C200040F4604020602068A96820F0F00008438C
:100C300020602878C0072DD030496868083901281D
:100C400012D0022813D0032811D00968890700297F
:100C50002DDA216821F0030101432160FFF7A0FC98
:100C6000814641F2883A0EE009688903EFE7096896
:100C70008901ECE7FFF794FCA0EB0901514502D98B
:100C80000320BDE8F0872068696800F00C00B0EB35
:100C9000810FEFD1D8F80010404601F00F01B142AA
:100CA00007D90770006800F00F00B04201D00120A2
:100CB000E7E72878400705D52068E96820F4E05088
:100CC000084320602878000706D52068296920F4A9
:100CD000604040EAC100206000F05CF82168084AEA
:100CE000C1F30311515CC840064908600020FFF7BA
:100CF000B9FE0020C5E70000003C02400838024071
:100D000038360008340100200F2202600C4A1368B4
:100D100003F003034360136803F0F0038360136878
:100D200003F4E053C36012684FF4E05303EAD202C5
:100D300002610448006800F00F000860704700007E
:100D400008380240003C024001480068704700003B
:100D5000340100200448054900680968044AC1F3C9
:100D60008221515CC840704734010020083802409D
:100D7000483600080448054900680968044AC1F378
:100D80004231515CC84070473401002008380240AD
:100D900048360008154810B5006810F00C021448D9
:100DA00013D04110042A0FD0082A0ED10F4C241F53
:100DB0002268236802F03F025B0207D52068C0F377
:100DC0008810A0FB010106E0084610BD2168C1F3B0
:100DD0008811A1FB00010023FFF750FA2168C1F33D
:100DE0000141491C4900B0FBF1F010BD0838024038
:100DF0000024F4002DE9F84F050076D02878DFF8BC
:100E0000F8B2BE4CC00749D0DBF800105846C1F319
:100E10008101012908D00068C0F3810002280AD1AD
:100E2000201D0068400206D52068800336D568681A
:100E30000028E2D032E06868B0F5803F10D0B0F50D
:100E4000A02F206810D020F480302060206820F48B
:100E5000802020606868A0B1FFF7A2FB06460CE086
:100E6000206840F48030F4E740F480202060F7E709
:100E7000FFF796FB801B642873D820688003F7D5A2
:100E80000CE0FFF78DFB064605E000BFFFF788FB8F
:100E9000801B6428F0D820688003F7D42878DFF816
:100EA000608280074FF000093ED5DBF800105846FD
:100EB00011F00C0F09D00068C0F3810002280BD19B
:100EC0008D48001F0068400206D42068800715D5B1
:100ED000E868012809D111E0E868B8B10120C8F834
:100EE0000000FFF75DFB064605E002E1FFF758FB57
:100EF000801B0228C0D820688007F7D520682969A0
:100F000020F0F80040EAC10020600DE0C8F8009031
:100F1000FFF746FB064604E0FFF742FB801B022872
:100F20001FD820688007F7D42878000722D5724E92
:100F3000744869696C3671B101210160FFF730FBBB
:100F4000074604E0FFF72CFBC01B022809D83068D5
:100F50008007F7D50EE0C0F80090FFF721FB0746A9
:100F600005E083E0FFF71CFBC01B02287ED8306839
:100F70008007F7D42878400768D5DFF87CA10027E0
:100F80000AF1380ADAF80000C0000BD4DAF80010D1
:100F900041F08051CAF80010DAF80000012700F093
:100FA00080500090584E3068C00510D4306840F42E
:100FB00080703060FFF7F4FA009005E0FFF7F0FA78
:100FC0000099401A022851D83068C005F6D54A4E1B
:100FD000A868683601280FD00528306810D020F0A6
:100FE00001003060306820F004003060A868B8B1BB
:100FF000FFF7D6FA00900FE0306840F00100F4E708
:1010000040F004003060F7E7FFF7CAFA0099411A90
:1010100041F28830814264D830688007F4D50EE010
:10102000FFF7BEFA009007E0FFF7BAFA0099411AFD
:1010300041F28830814254D830688007F4D42FB10F
:10104000DAF8001021F08051CAF80010A869C0B386
:10105000DBF80010C1F3810102294AD0022848467A
:1010600007D0C8F86000FFF79BFA00E039E00546BA
:101070003AE04746C8F86000FFF792FA064604E0F7
:10108000FFF78EFA801B02282BD820688001F7D446
:10109000D5E907010843A96A1C4A490802EB014146
:1010A0006A6A41EA8211084395F82C1040EA01610E
:1010B0001148001F016001203866FFF771FA0546EC
:1010C00005E014E0FFF76CFA401B022809D82068FD
:1010D0008001F7D50BE000BFFFF762FA401B022842
:1010E00002D90320BDE8F88F20688001F4D40020E5
:1010F000F8E70120F6E70000083802400038024017
:1011000000004742800E4742007000400000FFFF91
:101110004FF0E0210428086903D020F004000861A2
:10112000704740F00400FAE710B5401EB0F1807F30
:1011300001D3012010BD4FF0E02460610F21601742
:1011400000F07AFC0020A06107202061002010BD83
:101150007047704710B5040003D094F8390010B1FF
:1011600007E0012010BD002084F83800204600F080
:101170000CF8022084F83900211D206800F034FDAD
:10118000012084F83900002010BD70470168CA684A
:1011900042F00102CA600068016841F0010101608B
:1011A00000207047704770B50446006801694FF031
:1011B0000005C943890715D4C168C943890711D4FB
:1011C000E91E0161012020762068806980072046A1
:1011D00002D0FFF7E7FF04E000F098F8204600F0A7
:1011E00096F8257620680169C943490717D4C16874
:1011F000C943490713D46FF004010161022020762E
:101200002068806910F4407F204602D0FFF7CAFFB3
:1012100004E000F07BF8204600F079F8257620689D
:101220000169C943090716D4C168C943090712D423
:101230006FF008010161042020762068C0698007F2
:10124000204602D0FFF7AEFF04E000F05FF8204632
:1012500000F05DF8257620680169C943C90617D4F6
:10126000C168C943C90613D46FF010010161082099
:1012700020762068C06910F4407F204602D0FFF736
:1012800091FF04E000F042F8204600F040F8257697
:1012900020680169C943C90708D1C168C943C907A2
:1012A00004D1891E0161204600F032F820680169EE
:1012B000C943090609D4C168C943090605D46FF0BA
:1012C000800101612046FFF743FF20680169C9439F
:1012D000490609D4C168C943490605D46FF04001E5
:1012E0000161204600F01EF820680169C9438906A3
:1012F0000BD4C168C943890607D46FF0200101618E
:101300002046BDE87040FFF724BF70BD70477047AE
:1013100000680349884201D1FFF782BB7047000093
:10132000000001407047704770B5026804461068BD
:10133000D168536910F00F0F50D003F0010501F48C
:10134000907635435DD0C20705D0CA0503D5E26B60
:1013500042F00102E263420705D5DA0703D0E26BEF
:1013600042F00202E263820705D5DA0703D0E26B9E
:1013700042F00402E263020705D5DA0703D0E26B0C
:1013800042F00802E263E26B002A33D0800604D503
:10139000880602D5204600F09DFC20684069E16B7C
:1013A000C0F38010090700D428B3204600F084FC65
:1013B0002068416949061AD5416921F0400141611F
:1013C000606BA0B11B490165606BFEF7F8FF002858
:1013D00010D0606B016DBDE870400847830610D5E2
:1013E0008B060ED52046BDE8704000F073BC204649
:1013F000FFF799FF70BD2046FFF795FF0020E063DF
:1014000070BD030606D50B0604D52046BDE8704026
:1014100000F0FCBD4006F3D54806F1D5D168204662
:1014200021F04001D160202184F8391000F0C2F889
:1014300070BD0000A91C000870B5040004D094F829
:101440003900002510B106E0012070BD84F8385045
:10145000204600F023F8242084F839002068C16871
:1014600021F40051C160204600F07AFC2068016937
:1014700021F4904101612068416921F02A01416114
:101480002068C16841F40051C160E563202084F800
:10149000390084F83A00002070BD000000B50068F3
:1014A000124987B088421FD11148016841F4802158
:1014B00001600068694600F4802005904FF44060A8
:1014C0000090022001900120029003200390072049
:1014D00004900848FEF786FF002205212720FFF729
:1014E00049FB2720FFF73AFB07B000BD004800404A
:1014F000403802400004024070472DE9F84304469A
:1015000090F839001F4616460D46202850D1A5B147
:101510009EB194F8380001284AD0012084F83800A0
:101520004FF00008C4F83C80212084F83900FFF710
:1015300037F8A6848146E68426E00120BDE8F883DA
:10154000E08C401EE084A0684B46B0F5805F4FF011
:1015500000024FF080012046009703D000F087FD85
:10156000E8B90DE000F083FDC8B928882168C0F310
:1015700008004860206908B16D1C05E0AD1C03E05F
:10158000216815F8010B4860E08C0028D8D14B4643
:10159000002240212046009700F069FD08B1032099
:1015A000CCE7202084F8390084F838800020C5E793
:1015B0000220C3E77047FEE701684A69D24352053B
:1015C0000CD46FF480624A6104210164002140F868
:1015D000301F2022427301730120704700207047A2
:1015E0002DE9F84F0446C06A1E4692460D46216812
:1015F0000A6842F480620A60042807D0012805D0F6
:1016000010F5803F02D0206B112804D120680168BA
:1016100041F4807101604FF00118534600224146A9
:101620002046009600F0BDF8B8BB206908F101091A
:10163000B0F5804F12D00620216800EAD51747F098
:10164000F00008613346524608F10701204600F0D9
:10165000D9F838B1206C04282FD01EE0E8B240F051
:1016600001001FE02168E8B208613346524649464E
:10167000204600F0C7F80028ECD120684169816954
:101680000091016841F48071016053460022414697
:101690002046009600F085F810B10320BDE8F88FD1
:1016A00047F0F1002168086133465246494620461A
:1016B00000F0A8F80028CDD1F0E70120EEE7000007
:1016C000F8B50446C06A1E460D461746042807D0E2
:1016D000012805D010F5803F02D0206B122804D1DC
:1016E0002068016841F480710160134600224FF0C8
:1016F00001112046009600F054F8A0B92069B0F519
:10170000804F12D00620216800EAD51040F0F0008A
:10171000086133463A460E49204600F073F838B166
:10172000206C042811D00320F8BD05F0FE0000E075
:10173000E8B221680861064933463A46891F2046C7
:1017400000F060F80028EBD1F8BD0120F8BD0000E2
:101750000800010070B516460D4604461AE0204602
:10176000FFF72AFF08B1012070BD681C12D025B117
:10177000FEF716FF801BA8420CD954F8400F40F02A
:10178000200044F81009002020602021617320739C
:10179000032070BD20684069C0434007DFD40020AB
:1017A00070BD2DE9F0471E4690460D460446C1F334
:1017B0000747DDF8209012E0701C10D02EB1FEF724
:1017C000EFFEA0EB0900B04209D9002044F8300F29
:1017D00020216173A07320730320BDE8F087206887
:1017E000012F0AD0806925EA00000004000C06D011
:1017F00000214145E0D00020EFE74069F3E70121F7
:10180000F7E700002DE9F0479A4691460D46044659
:1018100000264FF02008C1F307472AE020684069FE
:10182000C043400512D42068016841F40071016092
:1018300021686FF48060486104202064266384F886
:101840003D8084F83C600120BDE8F087B9F1FF3F9E
:101850000FD0B9F1000F05D0FEF7A2FEA0EB0A01F0
:10186000494506D944F8306F84F80D80267303206B
:10187000EAE72068012F07D0D0F8180025EA000019
:101880000004000CE0D0C9E74069F7E72DE9F0411A
:10189000002590460E460446202721E04069C043BB
:1018A000C0060CD421686FF01000486125642563E0
:1018B00084F83D7084F83C500120BDE8F0812EB1E1
:1018C000FEF76EFEA0EB0800B04209D954F8400FB5
:1018D00040F0200044F80409677025700320ECE70D
:1018E00020684169C9434906D8D40020E5E770B5AE
:1018F00016460D4604461AE02046FFF75DFE08B185
:10190000012070BD681C12D025B1FEF749FE801B76
:10191000A8420CD954F8400F40F0200044F81009B8
:1019200000202060202161732073032070BD206897
:101930004069C0430006DFD4002070BD38B5074BB6
:101940001C780C705B784B7042F21071009113465A
:101950000146024A0248FEF7ADFE38BD00000020F5
:10196000980100201CB551218DF8041042F210712D
:1019700000910146012301AA0148FEF78FFF1CBD1B
:101980009801002070B51B4886B00024016841F022
:1019900080010160016801F080010591016841F05A
:1019A00002010160016801F002010591016841F046
:1019B00008010160016801F008010591016841F02A
:1019C0000101016000680C4E00F001004FF4605509
:1019D0000590002229463046FEF7DCFD01200095E7
:1019E000CDE90104694630460394FEF7FBFC06B0DE
:1019F00070BD000030380240000C02400B4810B5AA
:101A0000094901600A49416000214FF48042816028
:101A1000C0E9031241618161C1610162FEF7C6FD47
:101A2000002800D0FEE710BD0054004098010020BF
:101A3000A0860100FEE770470907090E002806DAB4
:101A400000F00F0000F1E02080F8141D704700F155
:101A5000E02080F80014704708B50A4C0025009576
:101A60002078FFF77FFF022269462078FFF766FFA4
:101A70009DF800106422206900F002FC012000F0B3
:101A8000A3FBECE7040000200EB50D4C4FF0FF3532
:101A9000642000F099FB2A466846216900F0A4FB07
:101AA000DDE90010102907D18DF800006946642394
:101AB00001220448FFF721FD012000F085FBE7E744
:101AC00004000020EC0100206423022203490448A2
:101AD000FFF713FD642000F077FBF5E71C00002002
:101AE000EC01002000F00DBC30B5254893B0002576
:101AF000016841F080510160006800F08050119051
:101B00002048016841F4804101600068022400F42B
:101B100080401190012000904FF4A02001906005BA
:101B2000CDE9064008200890A820CDE9090404204A
:101B30000B906846FFF75EF900B1FEE70CA90F2095
:101B400081E831004FF4A0500F904FF48050109076
:101B500002210CA8FFF740F800B1FEE7FFF7F4F808
:101B60004FF47A71B0FBF1F0FFF7DEFA0420FFF7D3
:101B7000CFFA00220F21501EFEF7FCFF13B030BD3C
:101B800040380240007000401048016841F4700184
:101B900001600F48016841F0010101600C4A002119
:101BA0000832116002680B4B1A400260031D0A4A9A
:101BB0001A60026822F48022026005480C3001603D
:101BC00002495806803908607047000088ED00E03F
:101BD00000380240FFFFF6FE103000240148FFF7F6
:101BE000E2BA00002C020020F0B50268234B244D1D
:101BF000244E254F254C4FF0804C984209D060452B
:101C000007D0A84205D0B04203D0B84201D0A042CC
:101C100004D122F0700E4A6842EA0E0298421BD0AC
:101C2000604519D0A84217D0B04215D0B84213D0A1
:101C3000A04211D0164DA8420ED0164DA8420BD08E
:101C4000154DA84208D0154DA84205D0144DA84204
:101C500002D0144DA84203D122F44075CA682A4329
:101C600002608A68C2620A688262984201D0A04219
:101C700001D10969016301214161F0BD000001400A
:101C80000004004000080040000C00400004014037
:101C9000004001400044014000480140001800405D
:101CA000001C00400020004010B5806B0021C18561
:101CB000C184FFF738FB10BD0168CA6822F4907236
:101CC000CA6001684A6922F001024A61202180F855
:101CD0003A10704710B590F83A10222901D002202E
:101CE00010BD8168B1F5805F11D0016900290168DC
:101CF0001FD0496801F07F03816A4A1C82620B7021
:101D0000C18D491E0904090CC18518D026E002695D
:101D1000816A002A0268526805D0D2B20A80816ABC
:101D2000491C8162ECE7C2F308020A80816A891CBF
:101D3000F7E74A68816A4B1C83620A70E0E7016832
:101D4000CA6822F49072CA6001684A6922F00102EE
:101D50004A61202180F83A10FFF7CEFB002010BD29
:101D60002DE9F04104460068016921F44052E16820
:101D7000114301612168C86849F20C6290432369EC
:101D8000A268E5691A4363692B431A430243CA6098
:101D90002168486920F44072A06910434861E169F4
:101DA0006425B1F5004F9748974A21684FF03208F3
:101DB0003FD0914201D081427CD1FEF7DBFF00EBA6
:101DC000C00101EB001061688900B0FBF1F6FEF77D
:101DD000D1FF00EBC00101EB001061688900B0FB8E
:101DE000F1F0B0FBF5F06FF01801484306EB80010D
:101DF00008EB0110B0FBF5F000F0F006FEF7BAFFBB
:101E000000EBC00101EB001061688900B0FBF1F04C
:101E1000B0FBF5F006EB0016FEF7ACFF00EBC001DF
:101E200001EB001061688900B0FBF1F7FEF7A2FF3B
:101E3000D2E0914201D081423DD1FEF79BFF00EB01
:101E4000C00101EB001061684900B0FBF1F0B0FB8C
:101E5000F5F00601FEF78EFF00EBC00101EB00106C
:101E600061684900B0FBF1F7FEF784FF00EBC001A9
:101E700001EB001061684900B0FBF1F0B0FBF5F038
:101E80006FF01801484307EB800108EBC100B0FB7D
:101E9000F5F000F0F80006EB4006FEF76BFF00EBF4
:101EA000C00101EB001061684900B0FBF1F7FEF7DB
:101EB00061FF3CE055E0FEF74DFF00EBC00101EB98
:101EC000001061684900B0FBF1F0B0FBF5F00601CD
:101ED000FEF740FF00EBC00101EB00106168490014
:101EE000B0FBF1F7FEF736FF00EBC00101EB00108D
:101EF00061684900B0FBF1F0B0FBF5F06FF018013C
:101F0000484307EB800108EBC100B0FBF5F000F09F
:101F1000F80006EB4006FEF71DFF00EBC00101EBE9
:101F2000001061684900B0FBF1F7FEF713FF00EB0A
:101F3000C00101EB001061684900B0FBF1F0B0FB9B
:101F4000F5F06FF01801484307EB800108EBC10082
:101F5000B0FBF5F000F00700216830448860BDE870
:101F6000F081FEF7F7FE00EBC00101EB00106168A5
:101F70008900B0FBF1F6FEF7EDFE00EBC00101EBCE
:101F8000001061688900B0FBF1F0B0FBF5F06FF074
:101F90001801484306EB800108EB0110B0FBF5F097
:101FA00000F0F006FEF7D6FE00EBC00101EB0010DA
:101FB00061688900B0FBF1F0B0FBF5F006EB0016AC
:101FC000FEF7C8FE00EBC00101EB0010616889005C
:101FD000B0FBF1F7FEF7BEFE00EBC00101EB001015
:101FE00061688900B0FBF1F0B0FBF5F06FF018010B
:101FF000484307EB800108EB0110B0FBF5F000F05F
:102000000F00A9E7001401400010014090F83910BA
:10201000212901D0022070478168B1F5805F016AF3
:102020000BD04A1C0262026809785160C18C491EBB
:102030000904090CC1840ED017E009880268C1F3B5
:102040000801516001690029016A02D0491C01623E
:10205000ECE7891CFBE70168CA6822F08002CA60CD
:102060000068C16841F04001C160002070472DE95F
:10207000F041984617460E460446069D1DE0681C32
:102080001BD02DB1FEF78CFAA0EB0800A84214D9A2
:102090002068C16821F4D071C1602068416921F0D5
:1020A00001014161202084F8390084F83A000020C1
:1020B00084F838000320BDE8F0812068006836EA23
:1020C000000004D00020B842D9D00020F3E701205E
:1020D000F9E700000148FFF727B90000EC010020F4
:1020E000FEE702E008C8121F08C1002AFAD17047B3
:1020F0007047002001E001C1121F002AFBD1704788
:10210000EFF30580002800D00120704792B0FEF761
:102110008FFCFFF7E9FCFFF735FC25482349002435
:1021200001604FF4E131C0E901140C21C460C0E941
:1021300004418461C461FFF77FF900B1FEE7FFF756
:102140005DFC012111A8119400F0C8F8194C14226B
:10215000194960616846FEF7C2F80021684600F040
:10216000DAF8154960601422143105A8FEF7B7F8B3
:10217000002105A800F0CFF80F49A06014222831F3
:102180000AA8FEF7ACF800210AA800F0C4F8E06045
:1021900009480838D0E90010CDE90F1000210FA838
:1021A00000F01EF8206100F016F8FEE7004800403D
:1021B000EC01002004000020FC350008014600204E
:1021C000842900D0C81C704710B500B9012000F068
:1021D00053FC002010BD10B500F0E6FC002010BD3F
:1021E00003C8002200F0D0BD2DE9FF410D004FF0E3
:1021F0000006CDE9016507461ED000240396501C59
:102200001FD002B11446FFF77BFF69464FF010085C
:10221000E8B103AA2846091D00F0E2FF012813D007
:1022200000960398F0B115494FF080500860BFF355
:102230004F8FBFF36F8F15E0802031462A46009004
:1022400012E04FF0FF34DEE7CDF80080E9E700232D
:1022500022462846091D00F0BBFD012808D054B1D4
:10226000402000909DE8070087E80700BDE8FF8157
:10227000CDF80080F6E70020F3E7000004ED00E071
:1022800037B5054682B000200090140000D101242B
:10229000FFF736FF4FF0000388B16A4603A92846CE
:1022A00000F040FF012811D1009890B10A494FF089
:1022B00080500860BFF34F8FBFF36F8F09E0224655
:1022C00003A9284600F07EFE012802D0FF2005B0B9
:1022D00030BD0020FBE7000004ED00E010B501294F
:1022E00001D0002010BD03220021012000F04CFD90
:1022F000040004D000231A46194600F063FE20466D
:1023000010BD10B501F01CF8012803D0BDE8104045
:1023100000F024BD10BD3EB504460D46B0F90800DE
:10232000FFF74CFF02A9CDE90001208A2B4682B2BB
:10233000D4E9001000F0D8FF012801D000203EBDF4
:1023400002983EBD2DE9F041184C0F460546E6685F
:102350002068001D00F0B0FA38B9206890F82C1001
:1023600001208840216981432161681C07D137B170
:102370002168BDE8F0410E48091D00F0D5BA20687B
:102380003544B5424560216805D2A06BBDE8F041F7
:10239000091D00F0B1BA606B091D00F0ADFAA06A2A
:1023A000854200D2A562BDE8F08100005C010020FA
:1023B000443F00202DE9F041054600F0C1FA2E4CC3
:1023C000A068401CA06020682C4F10B1606940B329
:1023D0002DE02560A068012829D1002606EB8600A3
:1023E00007EB800000F07AFA761C072EF6D323481C
:1023F0008C3000F073FA2148A03000F06FFA1F48CB
:10240000B43000F06BFA1D48C83000F067FA1B4882
:10241000DC3000F063FA19488C3060631430A0633C
:1024200005E02068E96AC06A884200D82560606AD1
:10243000401C6062E96A01202269884010432061E3
:1024400001EB810007EB8000291D00F06DFA00F020
:1024500097FA606900280CD02068E96AC06A88424F
:1024600007D207494FF080500860BFF34F8FBFF38A
:102470006F8FBDE8F08100005C010020683E002005
:1024800004ED00E070B5114E114C17E000F0C0FBF8
:102490003068B8B101F04CF800F052FAF068C56845
:1024A000281D00F009FAA068401EA0606068401E68
:1024B000606000F065FA284600F055F86068002872
:1024C000E4D170BD01F034F8F8E70000303F00209F
:1024D0005C01002030B4026C0B46002A0BD0C168AE
:1024E0001144C1604468A14201D30168C16030BC9D
:1024F0001846FDF7F4BE30BC70472DE9F041856BFE
:10250000174604460026026C82B1C7B1E068FDF7A9
:10251000E6FEE168206C091AE1602268914202D26D
:102520006168081AE060022F16D017E02068A8B989
:10253000606800F077FF0646002060600EE0A0684B
:10254000FDF7CDFE216CA0680844A0606168884258
:1025500004D32068A06001E005B16D1E6D1CA56369
:102560003046BDE8F08110B50446006B00F01CFA5F
:102570002046BDE8104000F017BA000010484FF4A4
:102580007051420706D0C01D0D4920F00700411AC6
:10259000C1F570510B4A00230144C2E90003083918
:1025A000103A21F0070111604B600B600B1AC0E973
:1025B000001393604FF000405360D06070470000FC
:1025C0006802002048010020074C4FF08056074D5C
:1025D000FFF758FF20680128FAD92E60BFF34F8F0C
:1025E000BFF36F8FF4E70000683E002004ED00E0C9
:1025F0002DE9F0479A46DDE9098481466FF003032F
:10260000206B03EB82021044089D20F00706700740
:1026100007D0502080F31188BFF34F8FBFF36F8F27
:10262000FEE723180A5C83F834200A5C12B1401CD0
:102630001028F6D3002784F84370072D00D3062511
:10264000E562C4E91157201D00F053F904F11800A8
:1026500000F04FF92461C5F107006462A061E764EE
:1026600084F8507052464946304600F00FF9206019
:10267000B8F1000F01D0C8F80040BDE8F0870000B5
:1026800030B5114900E011460A688242FBD34B681D
:102690005C18844203D14068184448600846436887
:1026A0001C18944209D1084C103C2468A24209D05D
:1026B00052681A4442600A6812680260814200D07F
:1026C000086030BD0460F9E74801002010B50446F9
:1026D00000F036F9A06B28B15FF0000400F050F96B
:1026E000204610BD0124F9E70648416B096829B16D
:1026F000416BC968C9684968816270474FF0FF3112
:10270000FAE700005C01002008484068401C4FF0D8
:10271000500080F3118804D0BFF34F8FBFF36F8F49
:10272000FEE7BFF34F8FBFF36F8FFEE7500100202E
:102730002DE9F041044600F003F994F9455004F105
:10274000240609E0606A48B1304600F0B7FE08B1DF
:1027500000F0B8F96D1E6DB2002DF3DC4FF0FF36BE
:1027600084F8456000F00CF900F0EAF894F9445060
:1027700004F1100709E0206948B1384600F09EFED8
:1027800008B100F09FF96D1E6DB2002DF3DC84F8E6
:102790004460BDE8F04100F0F3B800002DE9F041DD
:1027A0000546002700F034FA314E306808B9FFF7CB
:1027B000E5FEF06805424BD1C5B3083568070ED079
:1027C00005F00700C0F108000544680707D0502055
:1027D00080F31188BFF34F8FBFF36F8FFEE72DB3E8
:1027E0007068854234D82248103001460C6801E0F8
:1027F00020460C466168A94202D221680029F7D11F
:1028000031688C4224D0076821680160606808370D
:10281000411B10290FD96019420708D0502080F3BE
:102820001188BFF34F8FBFF36F8FFEE710E0416059
:102830006560FFF725FF61687068401A7060B268D4
:10284000904200D2B060F06801430020C4E900016A
:1028500000F06EFE780707D0502080F31188BFF398
:102860004F8FBFF36F8FFEE73846BDE8F081000061
:10287000380100200449086818B10868826C521CAD
:1028800082640868704700005C01002010B5031FD7
:102890004FF080741C601B1F21F001011960191F8B
:1028A000044B0B6014390A60091F6FF002024438B0
:1028B0000A6010BD09270008D0E9013201699A6059
:1028C000D0E901235A604A68824201D182684A6095
:1028D000002202610868401E0860704700F108018C
:1028E0004FF0FF32C0E90112C160016100210160B7
:1028F000704700210161704730B50B685A1C02D047
:1029000000F1080202E0026904E0224654682568EA
:102910009D42FAD953684B6099608A6051600861A2
:102920000168491C016030BD42684A6093688B6051
:1029300093685960916008610168491C01607047A3
:10294000502080F31188BFF34F8FBFF36F8F0A4978
:102950004868401C486001280CD10848006810F005
:10296000FF0F07D0502080F31188BFF34F8FBFF3C4
:102970006F8FFEE7704700005001002004ED00E07B
:102980000849486828B1401E486001D180F3118889
:102990007047502080F31188BFF34F8FBFF36F8FC4
:1029A000FEE700005001002070B5002827D0144D2C
:1029B000A0F108046168E868014207D1502080F363
:1029C0001188BFF34F8FBFF36F8FFEE722683AB1D4
:1029D000502080F31188BFF34F8FBFF36F8FFEE756
:1029E0008143616000F014F96068696808446860B8
:1029F0002046FFF745FEBDE8704000F099BD70BD70
:102A00003801002006484FF47A710068B0FBF1F1FC
:102A10004FF0E020491E416107210161704700002D
:102A20003401002010B5FDF713FC114910280ED316
:102A300000F1E02090F8F0030A78904207D250208D
:102A400080F31188BFF34F8FBFF36F8FFEE7094804
:102A50000068896800F4E060884207D9502080F35C
:102A60001188BFF34F8FBFF36F8FFEE710BD0000DB
:102A7000500100200CED00E010B5020014D00F480A
:102A8000006B38B1502080F31188BFF34F8FBFF334
:102A90006F8FFEE700F0BCF800211046FFF752FCF4
:102AA00000F046FD002807D105494FF0805008602E
:102AB000BFF34F8FBFF36F8F10BD00005C0100208C
:102AC00004ED00E001490120C86170475C0100206D
:102AD00010B50C4650B1094909681831FFF70CFFD1
:102AE0002046BDE810400121FFF72CBC502080F3A8
:102AF0001188BFF34F8FBFF36F8FFEE75C0100209B
:102B000070B5040039D01D4DE06A2968C96A884251
:102B100033D2A069002804DB2868C06AC0F107002E
:102B2000A061E16A164E01EB8101606906EB81014B
:102B300088421FD1201DFFF7BFFE012150B9E06A76
:102B400000EB800256F8222022B92A6901FA00F02F
:102B500082432A612868C06AE0622A698140114381
:102B6000296100EB800006EB8000211DBDE870406C
:102B7000FFF7DABE2868C06AE06270BD5C01002021
:102B8000683E002028B107490A6A0260C9684160AE
:102B90007047502080F31188BFF34F8FBFF36F8FC2
:102BA000FEE700005C0100201CB515480024CDE9BB
:102BB000004023464FF4807212A1144800F094FBA9
:102BC000012809D0401C1AD1502080F31188BFF38E
:102BD0004F8FBFF36F8FFEE7502080F31188BFF354
:102BE0004F8FBFF36F8F06484FF0FF312C38816253
:102BF00001214161C460BDE81C4000F03FB81CBD2C
:102C00008801002049444C4500000000C925000807
:102C10000248016B491C0163704700005C01002001
:102C20001448016B11B10121C16170470021C161DC
:102C30000169B1FA81F1C1F11F0101EB81020E4975
:102C400051F822306BB101EB820101F108034A68AF
:102C500052684A609A4201D152684A60D168016064
:102C60007047502080F31188BFF34F8FBFF36F8FF1
:102C7000FEE700005C010020683E00201CB53248E1
:102C80000168324A914207D1502080F31188BFF386
:102C90004F8FBFF36F8FFEE700682C49491E8842B3
:102CA00007D1502080F31188BFF34F8FBFF36F8F90
:102CB000FEE7274908780190FF20087008788DF812
:102CC00000009DF800009DF8002000F0F000904208
:102CD00007D0502080F31188BFF34F8FBFF36F8F61
:102CE000FEE79DF800001B4A00F05000107007201E
:102CF000906005E09DF800305B008DF80030401ECC
:102D00009DF800301B06F5D4000200F4E0609060EE
:102D1000019808700C482030016841F4700101608E
:102D2000016841F070410160FFF76CFE00205060C7
:102D3000FDF754FA0848016841F040410160FDF791
:102D40003DFA00201CBD000000ED00E071C20F4103
:102D500000E400E05001002034EF00E010B5502006
:102D600080F31188BFF34F8FBFF36F8F00F0F6FA37
:102D700018B104494FF080500860002080F311889A
:102D800010BD000004ED00E070B50E46050013D044
:102D9000D6B105FB06F04830FFF700FD040009D06E
:102DA00004F1480120468EB10160C0E90F560121AF
:102DB00000F0C4F8204670BD502080F31188BFF3A6
:102DC0004F8FBFF36F8FFEE70020E4E70060ECE772
:102DD0002DE9FF4F002683B09B468A46040003D0AE
:102DE000BAF1000F08D011E0502080F31188BFF332
:102DF0004F8FBFF36F8FFEE7206C38B1502080F308
:102E00001188BFF34F8FBFF36F8FFEE700F098FA82
:102E1000DFF824814FF000094FF0805748B905983A
:102E200038B1502080F31188BFF34F8FBFF36F8FFD
:102E3000FEE7FFF785FDA56B45B351462046E668E2
:102E4000FFF748FBBBF1000F13D0E660606A50B19A
:102E500004F1240000F032FB28B1C8F80070BFF381
:102E60004F8FBFF36F8FFFF78BFD012007B0BDE8D9
:102E7000F08F6D1EA563206810B9FFF7FBFC606042
:102E800020690028EFD004F11000E3E7059808B1AD
:102E90001EB106E0FFF774FD27E06846FFF772FEFB
:102EA0000126FFF76DFDFFF7B3FEFFF749FD94F92B
:102EB0004400401C01D184F8449094F94500401C22
:102EC00001D184F84590FFF75BFD05A9684600F045
:102ED000D5F9002820460AD0FFF72AFC00F028FB8D
:102EE0002046FFF7F3FB0028A3D00020BEE7FFF742
:102EF000EDFBD8B1206830B9FFF722FD6068FFF71D
:102F0000FFFDFFF73DFD04F124000599FFF7E0FD0B
:102F10002046FFF70DFC00F00BFB002889D1C8F814
:102F20000070BFF34F8FBFF36F8F82E72046FFF72C
:102F3000FFFB00F0FDFA7CE704ED00E070B50D4604
:102F4000040025D0FFF7FCFCD4E90F20216802FB28
:102F5000001161600021A1632168A1600A46D4E9E3
:102F60000F01401E00FB0121E16021464FF0FF30C0
:102F700001F8440F487004F110008DB1FFF7AEFC6A
:102F800004F12400FFF7AAFCFFF7FAFC012070BD52
:102F9000502080F31188BFF34F8FBFF36F8FFEE790
:102FA00021690029F0D000F089FA0028ECD004490A
:102FB0004FF080500860BFF34F8FBFF36F8FE3E790
:102FC00004ED00E02DE9FF4782B01D468A464FF030
:102FD0000008040003D0BAF1000F08D011E050201F
:102FE00080F31188BFF34F8FBFF36F8FFEE7206C24
:102FF00038B1502080F31188BFF34F8FBFF36F8F2C
:10300000FEE7022D0AD1E06B012807D0502080F3A3
:103010001188BFF34F8FBFF36F8FFEE700F090F979
:103020003F4F4FF000094FF0805648B9049838B12F
:10303000502080F31188BFF34F8FBFF36F8FFEE7EF
:10304000FFF77EFCA06BE16B884207D3022D05D011
:103050000498D0B1B8F1000F1AD01EE02A465146AC
:103060002046FFF74AFA616A19B104F1240000F022
:1030700025FA20B13E60BFF34F8FBFF36F8FFFF78C
:103080007FFC012006B0BDE8F087FFF779FC22E065
:103090006846FFF777FD4FF00108FFF771FCFFF777
:1030A000B7FDFFF74DFC94F94400401C01D184F8B2
:1030B000449094F94500401C01D184F84590FFF7F5
:1030C0005FFC04A9684600F0D9F830B12046FFF74C
:1030D0002FFB00F02DFA0020D4E7FFF731FCA06BA6
:1030E000E16B884213D1FFF74BFC04F11000049907
:1030F000FFF7EEFC2046FFF71BFB00F019FA002853
:103100009ED13E60BFF34F8FBFF36F8F98E7FFF7FD
:1031100037FC2046FFF70CFB00F00AFA90E70000AE
:1031200004ED00E02DE9F0471F4690468946040073
:1031300003D0B9F1000F08D011E0502080F31188BE
:10314000BFF34F8FBFF36F8FFEE7206C38B1502075
:1031500080F31188BFF34F8FBFF36F8FFEE7022F0D
:103160000AD1E06B012807D0502080F31188BFF30B
:103170004F8FBFF36F8FFEE7FFF754FC5020EFF344
:10318000118680F31188BFF34F8FBFF36F8FA06B51
:10319000E16B884206D3022F04D0002086F3118809
:1031A000BDE8F08794F945503A4649462046FFF776
:1031B000A4F9681C04D06D1C84F845500120EDE78B
:1031C000606A0028FAD004F1240000F077F90028A2
:1031D000F4D0B8F1000FF1D00121C8F80010EDE7EC
:1031E0002DE9F04790468946040003D0B9F1000F5D
:1031F00008D011E0502080F31188BFF34F8FBFF348
:103200006F8FFEE7206C38B1502080F31188BFF338
:103210004F8FBFF36F8FFEE7FFF704FC5020EFF3F3
:10322000118680F31188BFF34F8FBFF36F8FA76BA9
:10323000F7B194F9445049462046FFF74BF97F1EF9
:10324000A763681C04D06D1C84F84450012010E072
:1032500020690028FAD004F1100000F02FF90028AE
:10326000F4D0B8F1000FF1D00121C8F80010EDE75B
:10327000002086F31188BDE8F087000070B50D4688
:10328000040019D005B3FFF75BFB164AD168286824
:10329000431C0FD02368126A934202D062688A42AC
:1032A0001AD96268891A814216D2401A28602046CB
:1032B000FFF768FC002410E0502080F31188BFF372
:1032C0004F8FBFF36F8FFEE7502080F31188BFF35D
:1032D0004F8FBFF36F8FFEE70124FFF751FB2046AE
:1032E00070BD00005C0100202DE9FF5F8346DDE931
:1032F0000E87994616468A469000FFF74FFA05005A
:103300001AD05420FFF74AFA040012D02563002196
:10331000CDE90241CDE900874B4632465146584639
:10332000FFF766F92046FFF745F8012004B0BDE835
:10333000F09F2846FFF738FB4FF0FF30F6E700001C
:103340000548416919B1006B18B100207047012090
:1033500070470220704700005C0100202DE9F04119
:103360002E4C0027206B40B1A069401CA061E06991
:1033700000B101273846BDE8F081E668761CE660BA
:1033800013D1606B006838B1502080F31188BFF30F
:103390004F8FBFF36F8FFEE7606BA16B6163A0631C
:1033A000206A401C2062FFF79FF9A06ADFF8708056
:1033B000864209D3606B006880B1606BC068C568E5
:1033C000686886420DD2A0622068C06A00EB800166
:1033D00058F821000128CAD90127C8E74FF0FF306B
:1033E000F1E7281DFFF768FAA86A18B105F118007F
:1033F000FFF762FAE86A01212269814011432161E5
:1034000000EB800108EB8100291DFFF78DFAE86AC7
:103410002168C96A8842CDD30127CBE75C0100202F
:10342000683E002070B504004FF0000140D0214DEF
:103430002868844207D0502080F31188BFF34F8F53
:10344000BFF36F8FFEE7A06C38B1401EA064636CC1
:10345000E26A9A422CD040B12AE0502080F31188D1
:10346000BFF34F8FBFF36F8FFEE7201DFFF724FAE6
:10347000114A012150B9E06A00EB800352F8233071
:1034800023B92B6901FA00F083432B61606CE06281
:10349000C0F10700A061E06A2B69814019432961EE
:1034A00000EB800002EB8000211DFFF73DFA0121B7
:1034B000084670BD5C010020683E00202DE9F04107
:1034C000C068C468ACB104F118000746FFF7F4F90E
:1034D000154D286B0126A0B139461448FFF724FA90
:1034E000E06A2968C96A88421CD90120EE61BDE8FA
:1034F000F081502080F31188BFF34F8FBFF36F8F9F
:10350000FEE7201DFFF7D8F9E16A2A6906FA01F003
:103510001043286101EB81000449B43901EB8000BC
:10352000211DDBE70020E2E75C0100201C3F0020BA
:103530002DE9F0472C4D00242746286B38B1FFF7C2
:10354000FFF9286B401E2863286B40B146E05020ED
:1035500080F31188BFF34F8FBFF36F8FFEE7A96829
:10356000224E0120D1B3A6F1B40980463068E8B1FB
:10357000F068C46804F11800FFF79EF9201DFFF7FA
:103580009BF9E06A2A6908FA00F11143296100EB0E
:10359000800109EB8100211DFFF7C6F9E06A296867
:1035A000C96A8842E2D3C5F81C80DFE70CB1FFF797
:1035B0009BF8AC6944B14646FFF7D0FE00B1EE611E
:1035C000641EF9D10020A861E86938B108490127D3
:1035D00038070860BFF34F8FBFF36F8FFFF7D0F945
:1035E0003846BDE8F08700005C0100201C3F002049
:1035F00004ED00E010000000020000005C3600084E
:10360000591A0008000000000000000080000000BF
:1036100068360008891A0008FDFF0000000000005D
:103620008000000050360008C91A0008FDFF0000A5
:103630000000000000010000000000000000000089
:103640000102030406070809000000000102030448
:103650006D795461736B3033000000007461736BDB
:103660005F693263000000007461736B5F756172A3
:10367000740000009436000800000020980100004B
:10368000640300082C37000898010020C0410000A6
:10369000F2200008410217084809415441542B47C1
:1036A0004D520C000B262B43494F424155443D3FA0
:1036B0009932FF3131353230301EC808574D4F44F2
:1036C000453D310FCA320F7A330F5C4C41500A0826
:1036D00016114A41503D2254657374222C227061A8
:1036E0007373776F7264227D1B4653BB39327A51F4
:1036F0003C2A533C1D535349443C180850415353F2
:10370000574F520B78124348414E4E454C2C205394
:10371000454355524954594654525354320182102C
:0C372000031D24F41AAA0101400000005F
:040000050800018965
:00000001FF
